{
  "_format": "hh-sol-artifact-1",
  "contractName": "Escrow",
  "sourceName": "contracts/Escrow.sol",
  "abi": [
    {
      "inputs": [
        {
          "internalType": "address",
          "name": "_nftAddress",
          "type": "address"
        },
        {
          "internalType": "address payable",
          "name": "_seller",
          "type": "address"
        },
        {
          "internalType": "address",
          "name": "_inspector",
          "type": "address"
        },
        {
          "internalType": "address",
          "name": "_lender",
          "type": "address"
        }
      ],
      "stateMutability": "nonpayable",
      "type": "constructor"
    },
    {
      "inputs": [
        {
          "internalType": "uint256",
          "name": "",
          "type": "uint256"
        },
        {
          "internalType": "address",
          "name": "",
          "type": "address"
        }
      ],
      "name": "approval",
      "outputs": [
        {
          "internalType": "bool",
          "name": "",
          "type": "bool"
        }
      ],
      "stateMutability": "view",
      "type": "function"
    },
    {
      "inputs": [
        {
          "internalType": "uint256",
          "name": "_nftID",
          "type": "uint256"
        }
      ],
      "name": "approveSale",
      "outputs": [],
      "stateMutability": "nonpayable",
      "type": "function"
    },
    {
      "inputs": [
        {
          "internalType": "uint256",
          "name": "",
          "type": "uint256"
        }
      ],
      "name": "buyer",
      "outputs": [
        {
          "internalType": "address",
          "name": "",
          "type": "address"
        }
      ],
      "stateMutability": "view",
      "type": "function"
    },
    {
      "inputs": [
        {
          "internalType": "uint256",
          "name": "_nftID",
          "type": "uint256"
        }
      ],
      "name": "cancelSell",
      "outputs": [],
      "stateMutability": "nonpayable",
      "type": "function"
    },
    {
      "inputs": [
        {
          "internalType": "uint256",
          "name": "_nftID",
          "type": "uint256"
        }
      ],
      "name": "depositEarnest",
      "outputs": [],
      "stateMutability": "payable",
      "type": "function"
    },
    {
      "inputs": [
        {
          "internalType": "uint256",
          "name": "",
          "type": "uint256"
        }
      ],
      "name": "escrowAmount",
      "outputs": [
        {
          "internalType": "uint256",
          "name": "",
          "type": "uint256"
        }
      ],
      "stateMutability": "view",
      "type": "function"
    },
    {
      "inputs": [
        {
          "internalType": "uint256",
          "name": "_nftID",
          "type": "uint256"
        }
      ],
      "name": "finalizeSale",
      "outputs": [],
      "stateMutability": "nonpayable",
      "type": "function"
    },
    {
      "inputs": [],
      "name": "getBalance",
      "outputs": [
        {
          "internalType": "uint256",
          "name": "",
          "type": "uint256"
        }
      ],
      "stateMutability": "view",
      "type": "function"
    },
    {
      "inputs": [
        {
          "internalType": "uint256",
          "name": "",
          "type": "uint256"
        }
      ],
      "name": "inspectionPassed",
      "outputs": [
        {
          "internalType": "bool",
          "name": "",
          "type": "bool"
        }
      ],
      "stateMutability": "view",
      "type": "function"
    },
    {
      "inputs": [],
      "name": "inspector",
      "outputs": [
        {
          "internalType": "address",
          "name": "",
          "type": "address"
        }
      ],
      "stateMutability": "view",
      "type": "function"
    },
    {
      "inputs": [
        {
          "internalType": "uint256",
          "name": "",
          "type": "uint256"
        }
      ],
      "name": "isListed",
      "outputs": [
        {
          "internalType": "bool",
          "name": "",
          "type": "bool"
        }
      ],
      "stateMutability": "view",
      "type": "function"
    },
    {
      "inputs": [],
      "name": "lender",
      "outputs": [
        {
          "internalType": "address",
          "name": "",
          "type": "address"
        }
      ],
      "stateMutability": "view",
      "type": "function"
    },
    {
      "inputs": [
        {
          "internalType": "uint256",
          "name": "_nftID",
          "type": "uint256"
        },
        {
          "internalType": "address",
          "name": "_buyer",
          "type": "address"
        },
        {
          "internalType": "uint256",
          "name": "_purchasePrice",
          "type": "uint256"
        },
        {
          "internalType": "uint256",
          "name": "_escrowAmount",
          "type": "uint256"
        }
      ],
      "name": "list",
      "outputs": [],
      "stateMutability": "payable",
      "type": "function"
    },
    {
      "inputs": [],
      "name": "nftAddress",
      "outputs": [
        {
          "internalType": "address",
          "name": "",
          "type": "address"
        }
      ],
      "stateMutability": "view",
      "type": "function"
    },
    {
      "inputs": [
        {
          "internalType": "uint256",
          "name": "",
          "type": "uint256"
        }
      ],
      "name": "purchasePrice",
      "outputs": [
        {
          "internalType": "uint256",
          "name": "",
          "type": "uint256"
        }
      ],
      "stateMutability": "view",
      "type": "function"
    },
    {
      "inputs": [],
      "name": "seller",
      "outputs": [
        {
          "internalType": "address payable",
          "name": "",
          "type": "address"
        }
      ],
      "stateMutability": "view",
      "type": "function"
    },
    {
      "inputs": [
        {
          "internalType": "uint256",
          "name": "_nftID",
          "type": "uint256"
        },
        {
          "internalType": "bool",
          "name": "_passed",
          "type": "bool"
        }
      ],
      "name": "updateInspectionStatus",
      "outputs": [],
      "stateMutability": "nonpayable",
      "type": "function"
    },
    {
      "stateMutability": "payable",
      "type": "receive"
    }
  ],
  "bytecode": "0x60806040523480156200001157600080fd5b50604051620016e7380380620016e78339818101604052810190620000379190620001f3565b836000806101000a81548173ffffffffffffffffffffffffffffffffffffffff021916908373ffffffffffffffffffffffffffffffffffffffff16021790555082600160006101000a81548173ffffffffffffffffffffffffffffffffffffffff021916908373ffffffffffffffffffffffffffffffffffffffff16021790555081600260006101000a81548173ffffffffffffffffffffffffffffffffffffffff021916908373ffffffffffffffffffffffffffffffffffffffff16021790555080600360006101000a81548173ffffffffffffffffffffffffffffffffffffffff021916908373ffffffffffffffffffffffffffffffffffffffff1602179055505050505062000265565b600080fd5b600073ffffffffffffffffffffffffffffffffffffffff82169050919050565b6000620001768262000149565b9050919050565b620001888162000169565b81146200019457600080fd5b50565b600081519050620001a8816200017d565b92915050565b6000620001bb8262000149565b9050919050565b620001cd81620001ae565b8114620001d957600080fd5b50565b600081519050620001ed81620001c2565b92915050565b6000806000806080858703121562000210576200020f62000144565b5b6000620002208782880162000197565b94505060206200023387828801620001dc565b9350506040620002468782880162000197565b9250506060620002598782880162000197565b91505092959194509250565b61147280620002756000396000f3fe6080604052600436106101025760003560e01c806377fbc4ae11610095578063bcead63e11610064578063bcead63e14610364578063c9f0ec7e1461038f578063e740f770146103ab578063ed2cee9e146103c7578063fcce4883146103f257610109565b806377fbc4ae146102985780639d0e5fd6146102d5578063aa929380146102fe578063b848de351461032757610109565b80634dd4acaf116100d15780634dd4acaf146101b65780635bf8633a146101f35780635d19e56c1461021e5780635eed5fff1461025b57610109565b806307c9cd451461010e57806308551a531461013757806312065fe01461016257806314a72feb1461018d57610109565b3661010957005b600080fd5b34801561011a57600080fd5b5061013560048036038101906101309190610f08565b61042f565b005b34801561014357600080fd5b5061014c610619565b6040516101599190610f76565b60405180910390f35b34801561016e57600080fd5b5061017761063f565b6040516101849190610fa0565b60405180910390f35b34801561019957600080fd5b506101b460048036038101906101af9190610f08565b610647565b005b3480156101c257600080fd5b506101dd60048036038101906101d89190610f08565b6106b3565b6040516101ea9190610fdc565b60405180910390f35b3480156101ff57600080fd5b506102086106e6565b6040516102159190610fdc565b60405180910390f35b34801561022a57600080fd5b5061024560048036038101906102409190610f08565b61070a565b6040516102529190610fa0565b60405180910390f35b34801561026757600080fd5b50610282600480360381019061027d9190610f08565b610722565b60405161028f9190611012565b60405180910390f35b3480156102a457600080fd5b506102bf60048036038101906102ba9190610f08565b610742565b6040516102cc9190610fa0565b60405180910390f35b3480156102e157600080fd5b506102fc60048036038101906102f79190611059565b61075a565b005b34801561030a57600080fd5b5061032560048036038101906103209190610f08565b610819565b005b34801561033357600080fd5b5061034e600480360381019061034991906110c5565b610b99565b60405161035b9190611012565b60405180910390f35b34801561037057600080fd5b50610379610bc8565b6040516103869190610fdc565b60405180910390f35b6103a960048036038101906103a49190611105565b610bee565b005b6103c560048036038101906103c09190610f08565b610dc1565b005b3480156103d357600080fd5b506103dc610e87565b6040516103e99190610fdc565b60405180910390f35b3480156103fe57600080fd5b5061041960048036038101906104149190610f08565b610ead565b6040516104269190611012565b60405180910390f35b6000479050600015156008600084815260200190815260200160002060009054906101000a900460ff161515036105455760006007600084815260200190815260200160002060009054906101000a900473ffffffffffffffffffffffffffffffffffffffff1673ffffffffffffffffffffffffffffffffffffffff16826040516104b99061119d565b60006040518083038185875af1925050503d80600081146104f6576040519150601f19603f3d011682016040523d82523d6000602084013e6104fb565b606091505b505090508061053f576040517f08c379a00000000000000000000000000000000000000000000000000000000081526004016105369061120f565b60405180910390fd5b50610615565b6000600160009054906101000a900473ffffffffffffffffffffffffffffffffffffffff1673ffffffffffffffffffffffffffffffffffffffff168260405161058d9061119d565b60006040518083038185875af1925050503d80600081146105ca576040519150601f19603f3d011682016040523d82523d6000602084013e6105cf565b606091505b5050905080610613576040517f08c379a000000000000000000000000000000000000000000000000000000000815260040161060a9061127b565b60405180910390fd5b505b5050565b600160009054906101000a900473ffffffffffffffffffffffffffffffffffffffff1681565b600047905090565b60016009600083815260200190815260200160002060003373ffffffffffffffffffffffffffffffffffffffff1673ffffffffffffffffffffffffffffffffffffffff16815260200190815260200160002060006101000a81548160ff02191690831515021790555050565b60076020528060005260406000206000915054906101000a900473ffffffffffffffffffffffffffffffffffffffff1681565b60008054906101000a900473ffffffffffffffffffffffffffffffffffffffff1681565b60066020528060005260406000206000915090505481565b60086020528060005260406000206000915054906101000a900460ff1681565b60056020528060005260406000206000915090505481565b600260009054906101000a900473ffffffffffffffffffffffffffffffffffffffff1673ffffffffffffffffffffffffffffffffffffffff163373ffffffffffffffffffffffffffffffffffffffff16146107ea576040517f08c379a00000000000000000000000000000000000000000000000000000000081526004016107e19061130d565b60405180910390fd5b806008600084815260200190815260200160002060006101000a81548160ff0219169083151502179055505050565b6008600082815260200190815260200160002060009054906101000a900460ff1661084357600080fd5b6009600082815260200190815260200160002060006007600084815260200190815260200160002060009054906101000a900473ffffffffffffffffffffffffffffffffffffffff1673ffffffffffffffffffffffffffffffffffffffff1673ffffffffffffffffffffffffffffffffffffffff16815260200190815260200160002060009054906101000a900460ff166108dd57600080fd5b600960008281526020019081526020016000206000600160009054906101000a900473ffffffffffffffffffffffffffffffffffffffff1673ffffffffffffffffffffffffffffffffffffffff1673ffffffffffffffffffffffffffffffffffffffff16815260200190815260200160002060009054906101000a900460ff1661096657600080fd5b600960008281526020019081526020016000206000600360009054906101000a900473ffffffffffffffffffffffffffffffffffffffff1673ffffffffffffffffffffffffffffffffffffffff1673ffffffffffffffffffffffffffffffffffffffff16815260200190815260200160002060009054906101000a900460ff166109ef57600080fd5b6005600082815260200190815260200160002054471015610a0f57600080fd5b60006004600083815260200190815260200160002060006101000a81548160ff0219169083151502179055506000600160009054906101000a900473ffffffffffffffffffffffffffffffffffffffff1673ffffffffffffffffffffffffffffffffffffffff1647604051610a839061119d565b60006040518083038185875af1925050503d8060008114610ac0576040519150601f19603f3d011682016040523d82523d6000602084013e610ac5565b606091505b5050905080610ad357600080fd5b60008054906101000a900473ffffffffffffffffffffffffffffffffffffffff1673ffffffffffffffffffffffffffffffffffffffff166323b872dd306007600086815260200190815260200160002060009054906101000a900473ffffffffffffffffffffffffffffffffffffffff16856040518463ffffffff1660e01b8152600401610b639392919061132d565b600060405180830381600087803b158015610b7d57600080fd5b505af1158015610b91573d6000803e3d6000fd5b505050505050565b60096020528160005260406000206020528060005260406000206000915091509054906101000a900460ff1681565b600360009054906101000a900473ffffffffffffffffffffffffffffffffffffffff1681565b600160009054906101000a900473ffffffffffffffffffffffffffffffffffffffff1673ffffffffffffffffffffffffffffffffffffffff163373ffffffffffffffffffffffffffffffffffffffff1614610c7e576040517f08c379a0000000000000000000000000000000000000000000000000000000008152600401610c75906113b0565b60405180910390fd5b60008054906101000a900473ffffffffffffffffffffffffffffffffffffffff1673ffffffffffffffffffffffffffffffffffffffff166323b872dd3330876040518463ffffffff1660e01b8152600401610cdb9392919061132d565b600060405180830381600087803b158015610cf557600080fd5b505af1158015610d09573d6000803e3d6000fd5b5050505060016004600086815260200190815260200160002060006101000a81548160ff021916908315150217905550816005600086815260200190815260200160002081905550806006600086815260200190815260200160002081905550826007600086815260200190815260200160002060006101000a81548173ffffffffffffffffffffffffffffffffffffffff021916908373ffffffffffffffffffffffffffffffffffffffff16021790555050505050565b806007600082815260200190815260200160002060009054906101000a900473ffffffffffffffffffffffffffffffffffffffff1673ffffffffffffffffffffffffffffffffffffffff163373ffffffffffffffffffffffffffffffffffffffff1614610e63576040517f08c379a0000000000000000000000000000000000000000000000000000000008152600401610e5a9061141c565b60405180910390fd5b6006600083815260200190815260200160002054341015610e8357600080fd5b5050565b600260009054906101000a900473ffffffffffffffffffffffffffffffffffffffff1681565b60046020528060005260406000206000915054906101000a900460ff1681565b600080fd5b6000819050919050565b610ee581610ed2565b8114610ef057600080fd5b50565b600081359050610f0281610edc565b92915050565b600060208284031215610f1e57610f1d610ecd565b5b6000610f2c84828501610ef3565b91505092915050565b600073ffffffffffffffffffffffffffffffffffffffff82169050919050565b6000610f6082610f35565b9050919050565b610f7081610f55565b82525050565b6000602082019050610f8b6000830184610f67565b92915050565b610f9a81610ed2565b82525050565b6000602082019050610fb56000830184610f91565b92915050565b6000610fc682610f35565b9050919050565b610fd681610fbb565b82525050565b6000602082019050610ff16000830184610fcd565b92915050565b60008115159050919050565b61100c81610ff7565b82525050565b60006020820190506110276000830184611003565b92915050565b61103681610ff7565b811461104157600080fd5b50565b6000813590506110538161102d565b92915050565b600080604083850312156110705761106f610ecd565b5b600061107e85828601610ef3565b925050602061108f85828601611044565b9150509250929050565b6110a281610fbb565b81146110ad57600080fd5b50565b6000813590506110bf81611099565b92915050565b600080604083850312156110dc576110db610ecd565b5b60006110ea85828601610ef3565b92505060206110fb858286016110b0565b9150509250929050565b6000806000806080858703121561111f5761111e610ecd565b5b600061112d87828801610ef3565b945050602061113e878288016110b0565b935050604061114f87828801610ef3565b925050606061116087828801610ef3565b91505092959194509250565b600081905092915050565b50565b600061118760008361116c565b915061119282611177565b600082019050919050565b60006111a88261117a565b9150819050919050565b600082825260208201905092915050565b7f526566756e6420746f206275796572206661696c656400000000000000000000600082015250565b60006111f96016836111b2565b9150611204826111c3565b602082019050919050565b60006020820190508181036000830152611228816111ec565b9050919050565b7f5061796d656e7420746f2073656c6c6572206661696c65640000000000000000600082015250565b60006112656018836111b2565b91506112708261122f565b602082019050919050565b6000602082019050818103600083015261129481611258565b9050919050565b7f4f6e6c7920696e73706563746f722063616e2063616c6c2074686973206d657460008201527f686f640000000000000000000000000000000000000000000000000000000000602082015250565b60006112f76023836111b2565b91506113028261129b565b604082019050919050565b60006020820190508181036000830152611326816112ea565b9050919050565b60006060820190506113426000830186610fcd565b61134f6020830185610fcd565b61135c6040830184610f91565b949350505050565b7f4f6e6c792073656c6c65722063616e2063616c6c2074686973206d6574686f64600082015250565b600061139a6020836111b2565b91506113a582611364565b602082019050919050565b600060208201905081810360008301526113c98161138d565b9050919050565b7f4f6e6c792062757965722063616e2063616c6c2074686973206d6574686f6400600082015250565b6000611406601f836111b2565b9150611411826113d0565b602082019050919050565b60006020820190508181036000830152611435816113f9565b905091905056fea2646970667358221220323863a1a82ee92d8f757d270bd326670900a5f6cdb98232dbbf904b3c9be0cb64736f6c63430008140033",
  "linkReferences": {},
  "deployedLinkReferences": {}
}